:020000040800F2
:100000001016002001010008EB3200082D2D000819
:10001000E9320008D5090008693C0008000000002A
:10002000000000000000000000000000ED360008A5
:100030008D10000800000000CD350008BD38000814
:100040001B0100081B0100081B0100081B01000820
:100050001B0100081B0100081B0100081B01000810
:100060001B0100081B0100081B0100081B01000800
:100070001B0100081B0100081B0100081B010008F0
:100080001B0100081B0100081B0100081B010008E0
:100090001B0100081B0100081B0100081B010008D0
:1000A0001B010008213900081B0100081B01000882
:1000B0001B0100081B0100081B0100081B010008B0
:1000C0001B0100081B0100081B0100081B010008A0
:1000D0001B0100085D3C00081B0100081B01000813
:1000E0001B0100081B0100081B010008DFF80CD0F1
:1000F00000F012FC004800470948000810160020D4
:100100000648804706480047FEE7FEE7FEE7FEE7B1
:10011000FEE7FEE7FEE7FEE7FEE7FEE71F39000821
:10012000ED000008202A04DB203A21FA02F0002129
:10013000704721FA02F3D040C2F1200291400843F7
:1001400019467047D2B201E000F8012B491EFBD2DC
:1001500070470022F6E710B513460A4604461946D2
:10016000FFF7F0FF204610BD30B505462A460B4686
:1001700012F8010B13F8014B08B1A042F8D01CB1E2
:10018000002802D06D1CF1E7284630BDF0B480EAAB
:100190000102D40F4200B2EB410F02D202460846E0
:1001A00011464A0042D0C30DDDB2C1F3C752AD1AA9
:1001B000202D35DAC1F3160141F4000204B1524298
:1001C000C5F1200602FA06F12A411044B3EBD05FD4
:1001D00023D0C4B1012DA0EBC35009DCF0BC4FF01B
:1001E000004202EAC352DBB200F5000000F0C2B9DF
:1001F000400000F1807000EBC350A0F1807040EA35
:10020000D170490009E0490841EAC071A0EBC35030
:1002100000F50000400800EBC350F0BC00F0A1B9AD
:100220006142012202EB4101001BF6E7F0BC70477E
:1002300081F00041AAE780F00040A7E780EA0102D0
:1002400010B502F00043400022D04A001FD0010E3A
:1002500001EB1261C0F35600C2F3560240F40000F5
:1002600042F40002A0FB022000047F39140400D0F5
:10027000401C50EA124001D44000491EC2B20C0694
:1002800004EBD010401C4008802A02D003E000207C
:1002900010BD20F00100002900DA0020184310BD35
:1002A00030B480EA010202F0004530F0004221F053
:1002B000004013D090B1C30DD40DC2F31601C0F3AA
:1002C0001600E41A41F4000140F400027D3491422A
:1002D00001D3641C00E04900002C02DA30BC00208D
:1002E00070474FF400000023914201D3891A034361
:1002F00040084FEA4101F7D151B1914202D14FF08C
:10030000004105E002D24FF0010101E06FF0010170
:1003100003EBC450284430BC00F023B92DE9FE4F54
:1003200081EA030404F0004421F0004100944FF0FE
:10033000000B23F0004350EA01045ED052EA0304AC
:100340005BD0C3F30A54C1F30A552C44A4F2F3342E
:100350000194A0FB0254C1F3130141F48011C3F3D3
:10036000130343F4801301FB024400FB034E840A91
:10037000970A44EA815447EA8357A4FB0768029529
:100380008D0A05FB07854FEA932C04FB0C542705C7
:10039000029D4FEA065847EA1637B5EB08056EEBA3
:1003A000070C870E920E47EA811742EA8312A7FBD9
:1003B0000201B6EB0B0164EB00042B0D43EA0C3396
:1003C0005E1844EB1C50DA465146E7FB0201C5F3C8
:1003D00013044FEA0B3343EA14534FEA0432019CEF
:1003E00043EA0603A4F10C040294009CCDE900B496
:1003F00000F0FDF803B0BDE8F08F00200146F9E7FA
:10040000C10F80EAE0700844CA079623002100F07B
:10041000B1B896230022114600F0ACB80EB5C10F5A
:1004200080EAE0700844CA07002140F233438DE8B7
:100430000E000A460B4600F0DAF803B000BD00F0EB
:10044000004220F00040C10DC0F3160040F400004F
:100450007F2901DA00207047962903DCC1F196015B
:10046000C84001E096398840002AF4D040427047E5
:1004700070B5C1F30A5201F000450024C1F3130125
:1004800040F2FF3341F480119A4201DA002070BD3E
:1004900040F233439A42A2F2334203DC5242FFF766
:1004A00041FE00E090402C43F1D0404270BD00F08E
:1004B000004230F000400AD0C10D01F56071C0F378
:1004C000160042EA0151C20840071143704700205C
:1004D0000146704730B50B4601460020202201241A
:1004E00009E021FA02F59D4205D303FA02F5491B02
:1004F00004FA02F52844151EA2F10102F1DC30BD18
:100500002DE9F05F0546002092469B468846064648
:10051000814640241BE02846414647462246FFF7D5
:1005200001FE53465A46C01A914110D3114618464F
:10053000224600F003FA2D1A67EB01084F462246C7
:100540000120002100F0FAF917EB00094E41201EAE
:10055000A4F10104DFDC484631462A464346BDE8A3
:10056000F09F0029A8BF7047401C490008BF20F039
:100570000100704710B4B0FA80FC00FA0CF050EAA9
:10058000010404BF10BC704749B1CCF1200421FA2A
:1005900004F411FA0CF118BF012121430843A3EB25
:1005A0000C01CB1D4FEA00614FEA102042BF002032
:1005B00010BC704700EBC35010440029A4BF10BC0E
:1005C0007047401C490008BF20F0010010BC704774
:1005D00010B5141E73F1000408DA401C41F100014B
:1005E00092185B411A4301D120F0010010BD2DE9A2
:1005F000F04D92469B4611B1B1FA81F202E0B0FA99
:1006000080F22032904600F099F904460F4640EA05
:100610000A0041EA0B0153465A46084313D01146DB
:1006200053EA010019D0C8F140025046FFF77AFDA5
:1006300005460E4650465946424600F07FF90843AB
:1006400005D0012004E020463946BDE8F08D0020A9
:10065000054346EAE0762C4337430A986305E40AEB
:10066000A0EB08000022FD0A44EA47540A3002D5F4
:1006700000200146E9E7010510196941DDE9084557
:1006800000196941BDE8F04DA2E72DE9FE4F804613
:1006900081EA0300C00F0C46009021F0004123F0D6
:1006A0000045B8EB0200A94105D2404621469046DC
:1006B0001C460B46024623F00040104347D0270D4E
:1006C000C7F30A00C3F30A510290401A0190402870
:1006D0006BDAC3F3130040F4801B0098924620B1FC
:1006E0000023D2EB030A63EB0B0B01985946C0F1D0
:1006F0004002504600F022F906460D465046594643
:10070000019A00F02AF910EB08006141002487EA01
:10071000115284EAE7731A4340D0009A62B3019AF7
:10072000012A4FEA075215DC001B61EB02014FF072
:10073000004202EA0752CDE90042001C41F5801157
:1007400032462B46FFF753FF03B0BDE8F08F40461B
:100750002146F9E7001B61EB0201001C41F5801303
:1007600000185B412018A2F5001747EB030140EA8F
:10077000D570B6196D4111E06D084FEA360645EAAD
:10078000C0754FEA0752001B61EB0201001C41F5E6
:10079000801149084FEA30000019514132462B467A
:1007A00003B0BDE8F04FFFF713BF009801224000EF
:1007B0000023D0EB020263EBE073009821464FEA7E
:1007C000E074B8EB000061EB0401E9E783F000435B
:1007D0005BE781F0004158E72DE9F04D81EA030421
:1007E00004F0004B21F0004514464FF0000A23F0BE
:1007F000004150EA050220D054EA01021DD0C5F3A1
:100800000A570246C5F31303C1F31300C1F30A5696
:1008100040F4801543F48013A7EB0608101BD6465E
:1008200008F2FD3873EB050002D308F1010801E07E
:1008300092185B41B8F1000F03DA00200146BDE8D1
:10084000F08D00204FF48011064684460EE0171B01
:1008500073EB050705D3121B63EB050306434CEA54
:10086000010C49084FEA300092185B4150EA010739
:10087000EDD152EA030012D082EA040083EA0501B6
:10088000084305D0101BAB4106D20122002306E02D
:1008900000224FF0004302E06FF0010253101AEB08
:1008A00006004CEB085110EB0A0041EB0B01BDE8D0
:1008B000F04DFFF78DBEC1F30A52C1F3130140F2B0
:1008C000FF3341F480119A4202DA0020014670475A
:1008D00040F233439A42A2F2334202DC5242FFF723
:1008E00021BC00F02BB8000030B5041E71F10004EB
:1008F00004DB4FF00044404264EB0101141E73F12D
:10090000000405DB1C464FF00043524263EB040336
:10091000994208BF904230BD064C074D06E0E068A2
:1009200040F0010394E8070098471034AC42F6D336
:10093000FFF7E0FB3059000850590008202A04DB7B
:10094000203A00FA02F1002070479140C2F12003E2
:1009500020FA03F3194390407047202A06DBCB1797
:10096000203A41FA02F043EAE07306E041FA02F36A
:10097000D040C2F12002914008431946704770B53B
:100980008C1810F8015B15F0070301D110F8013B3A
:100990002A1106D110F8012B03E010F8016B01F8C1
:1009A000016B5B1EF9D12B0705D40023521E0DD419
:1009B00001F8013BFAE710F8013BCB1A921C03E067
:1009C00013F8015B01F8015B521EF9D5A142D8D39F
:1009D000002070BDFEE70000FEB5164E6D460522F4
:1009E0002946304602F0F4FD00248DF80A4012A199
:1009F0002846FFF7B9FB0F4D103548B9052210A165
:100A0000304602F0F3FD01221049284602F0EEFDC7
:100A1000642000F04FFB01220C49284602F0D8FD6B
:100A20000A484EF660220A384189914200D9448131
:100A3000FEBD000010F00008464459445A00000072
:100A4000464459445A000000000000000A000020FB
:100A500070B50446812000F019F900F00F058120DF
:100A600000F014F9000900EB800005EB4000207055
:100A7000832000F00BF900F00F05832000F006F949
:100A8000000900EB800005EB40006070852000F05D
:100A9000FDF800F00F05852000F0F8F8000900EBE4
:100AA000800005EB4000A070872000F0EFF800F018
:100AB0000F05872000F0EAF8000900EB800005EB45
:100AC0004000E070892000F0E1F800F00F05892077
:100AD00000F0DCF8000900EB800005EB400020711D
:100AE0008B2000F0D3F800F00F058B2000F0CEF83B
:100AF000000900EB800005EB400060718D2000F0E4
:100B0000C5F800F00F058D2000F0C0F8000900EBDB
:100B1000800005EB4000E080002070BD70B5044609
:100B200000218E2000F010F920780A25B0FBF5F1A5
:100B300005FB11002178B1FBF5F100EB0110C1B20A
:100B4000802000F001F96078B0FBF5F105FB1100A1
:100B50006178B1FBF5F100EB0110C1B2822000F029
:100B6000F3F8A078B0FBF5F105FB1100A178B1FB1B
:100B7000F5F100EB0110C1B2842000F0E5F8E07857
:100B8000B0FBF5F105FB1100E178B1FBF5F100EBED
:100B90000110C1B2862000F0D7F82079B0FBF5F142
:100BA00005FB11002179B1FBF5F100EB0110C1B299
:100BB000882000F0C9F86079B0FBF5F105FB110061
:100BC0006179B1FBF5F100EB0110C1B28A2000F0B0
:100BD000BBF8E088B0FBF5F105FB1100E188B1FB43
:100BE000F5F100EB0110C1B28C2000F0ADF88021CE
:100BF0008E2000F0A9F8002070BD000030B585B04F
:100C0000002002900D48816941F0100181618069E6
:100C10004FF4604400F0100004900120CDE9004042
:100C20000320074D03906946284601F0DDF80022B5
:100C30002146284601F0CDF905B030BD0010024034
:100C40000010014070B50546FFF7D8FFC12000F045
:100C50001DF800F00F04C12000F018F8000900EBA7
:100C6000800004EB400001280ED000218E2000F00F
:100C70006BF80121C02000F067F880218E2000F081
:100C800063F82846FFF74AFF002070BD2DE9FF47B3
:100C900000264FF400492B4D8246344632464F46DB
:100CA0004946284601F095F94FF400580022414684
:100CB000284601F08EF9052000F0FEF901223946A0
:100CC000284601F086F9052000F0F6F9504600F0BC
:100CD0006DF800200190039001204FF480470290AE
:100CE00000976946284601F07FF8BA464746002239
:100CF0003946284601F06DF9022000F0DDF964085C
:100D00005146284601F060F9012801D144F08004E1
:100D100001223946284601F05CF9022000F0CCF9A6
:100D2000761CF6B2082EE2D300223946284601F09E
:100D300050F900224946284601F04BF904B02046FC
:100D4000BDE8F087001001402DE9F041164D8846BE
:100D500007464FF4004400222146284601F039F9A5
:100D6000A61000223146284601F033F9052000F094
:100D7000A3F901222146284601F02BF9052000F0B5
:100D80009BF9384600F012F8404600F00FF80022B8
:100D90002146284601F01DF931462846BDE8F041BC
:100DA000002201F016B90000001001402DE9FF41BA
:100DB00005464FF480470120CDE900700320154E11
:100DC0000024039002946946304601F00DF8B846BD
:100DD000771400223946304601F0FBF8E80701D0CD
:100DE000012200E000224146304601F0F2F80220E4
:100DF00000F062F901223946304601F0EAF802209B
:100E000000F05AF9641C6D08E4B2082CE1D3BDE887
:100E1000FF8100000010014070B5194800240168EE
:100E200021F470410160016841F400410160C51482
:100E3000061F04E0641CE4B2012000F03DF92946DD
:100E4000304601F0C1F8012803D0C82C14D2002488
:100E500007E0C82CEED30FE0641CE4B2012000F0E0
:100E60002BF92946304601F0AFF8012802D0F02CCA
:100E7000F2D301E0F02C01D3012070BD002070BD41
:100E80000408014070B500F0B9F800F095F8FFF7DC
:100E9000C3FFCC2000F0C0F8BE2000F0BDF800F089
:100EA0007BF8044600F078F8072805D9C043E143F1
:100EB000C0B2CCB2002500E0012504EB002000B256
:100EC000FFF7ACFA0022054BFFF728FAFFF7D0FA3C
:100ED00000B2002D01D1404200B270BD0000E43FDD
:100EE00030B585B0002002900F48816941F00401BF
:100EF000816180694FF4006400F0040004900120D7
:100F0000CDE900400320094D03906946284600F0D2
:100F10006BFF01222146284601F05BF800F04CF8F7
:100F2000FFF77AFF05B030BD001002400008014015
:100F300070B5184C206820F470402060206840F4A0
:100F400040502060E514261F00222946304601F05B
:100F500040F8022000F0B0F801222946304601F0A6
:100F600038F8206820F470402060206840F4004089
:100F700020600C2000F0A0F82946304601F024F84B
:100F8000012805D00024322000F096F8204670BDDC
:100F90000124F8E70408014070B500255FF0010462
:100FA000FFF7C6FFC001641C40EA5500E4B2C5B2B9
:100FB000082CF5D9284670BD70B50F48016821F49A
:100FC00070410160016841F440510160C414051F83
:100FD00000222146284600F0FCFF40F2EE2000F0FF
:100FE0006BF801222146284600F0F3FFBDE870406F
:100FF0000F2000F061B800000408014010B5FFF7B1
:10100000DBFFFFF709FFCC2000F006F8BDE8104039
:10101000442000F001B800002DE9F04105461A48CF
:10102000016821F470410160016841F440510160A0
:101030000124C614B0F1040715F0010F4FEA55055D
:101040004FF00002314638460BD000F0C2FF0220BC
:1010500000F032F801223146384600F0BAFF3C2059
:101060000AE000F0B6FF3C2000F026F801223146ED
:10107000384600F0AEFF022000F01EF8641CE4B217
:10108000082CD9D9BDE8F081040801407047000060
:101090000648016841F08071016005480021416007
:1010A000016841F00101016070470000FCED00E0C3
:1010B000001000E000F0D4BD064A10B553680649A0
:1010C000064C0968B1FBF4F141435068C01A8842EC
:1010D000FBD310BD001000E07800002040420F005C
:1010E000F8B5FFF7CFFE1E4D64260024A88190FBC3
:1010F000F6F03030C2B2022350201946009402F0BC
:10110000DFF9B5F90C00022390FBF6F106FB1100A4
:101110000A2690FBF6F03030C2B2582019460094EF
:1011200002F0CEF9022360202E221946009402F02C
:10113000C7F9B5F90C00022390FBF6F106FB11008C
:101140003030C2B268201946009402F0B9F9022387
:10115000702043221946009402F0B2F9F8BD000055
:1011600000000020F8B59F4C207810B99E48FFF78A
:101170006FFC9D4DE8884FF4C87100F5FA6080B2AD
:10118000B0FBF1F201FB120200270121002A7DD001
:101190006422B0FBF2F302FB13020AB1800775D0A0
:1011A000677020780090022332220021384602F036
:1011B00087F920780090082002233022002102F0D5
:1011C0007FF9E8880A26B0FBF6F03030C2B220780A
:1011D000009002230021102002F072F9E888022317
:1011E000B0FBF6F106FB11022078009000211820D8
:1011F000303202F065F902232D22002120200097D1
:1012000002F05EF928790223B0FBF6F03030C2B26A
:1012100020780021401EC0B20090282002F050F932
:1012200028790223B0FBF6F106FB11022078002199
:10123000401EC0B200903020303202F041F9382018
:1012400002232D220021009702F03AF9E8780223C8
:10125000B0FBF6F03030C2B220780021801EC0B260
:101260000090402002F02CF9E8780223B0FBF6F160
:1012700006FB110220780021801EC0B20090482099
:10128000303202F01DF92078C01E00E00EE0C3B23B
:1012900000225820114602F0DFF86879082815D29C
:1012A000DFE800F014060C82888E949A617078E76B
:1012B0002078C01EC3B26820012204E02078C01E3E
:1012C000C3B268200222002102F0C6F8A8780A25DD
:1012D000B0FBF5F03030C2B220780223001FC0B25C
:1012E00000901946002002F0EBF83F488078022376
:1012F000B0FBF5F105FB110220781946001FC0B2C2
:1013000000900820303202F0DBF800200090022329
:1013100010203A22194602F0D3F8334840780223CD
:10132000B0FBF5F03030C2B220781946401FC0B291
:101330000090182002F0C4F82B4840780223B0FB3C
:10134000F5F105FB110220781946401FC0B200904C
:101350002020303202F0B4F8002000900223282030
:101360003A22194602F0ACF81F4800780223B0FB7D
:10137000F5F03030C2B220781946801FC0B200901C
:10138000302002F09DF8184800780223B0FBF5F1F8
:1013900005FB110220781946801FC0B2009038204A
:1013A000303202F08DF8F8BD2078C01EC3B268203C
:1013B000032288E72078C01EC3B26820042282E797
:1013C00020780522C01EC3B268207CE72078C01EAA
:1013D000C3B26820062276E72078C01EC3B2682018
:1013E000072270E7000000206C03002072B6FEE7C1
:1013F00006490020C8610648016941F00401016105
:10140000016941F04001016170470000400900207E
:1014100000200240064A0021D16106490A6942F0D3
:1014200002020A614861086940F0400008617047A3
:101430004009002000200240044B0022DA61044AE7
:10144000136943F0010313610180704740090020D4
:101450000020024014480022C168CB06134904D57D
:10146000CA6942F00202CA611022C3685B0705D54F
:10147000CB6943F00103CB6142F00402C369DB078F
:1014800007D0CB6943F00403CB61C16921F00101AE
:10149000C161A2F58071013901D0C2607047C16994
:1014A00021F00101C1617047002002404009002085
:1014B00070B5054600F092FD0646114C09E0681C27
:1014C00007D025B100F08AFD801BA84201D9032076
:1014D00070BDE068C007F2D1E068800601D5202029
:1014E000E060E068C00605D4E069C00702D1E068AA
:1014F000400703D5FFF7AEFF012070BD002070BD8F
:10150000002002402DE9FE4F0024DFF8F483FB4B5E
:10151000FC4EC8E91734A1464A46322106F5167535
:1015200005EB810755F8210047F8C80C06EB810C44
:1015300056F821704CF8C87C984200D2034690427D
:1015400000D90246491C9629EADBC8E91732DFF8C0
:10155000B8B3642705EB870151F8040CC8F86400A0
:1015600006EB870003F078FB55F82710D8F86400E5
:10157000814220D9081AFEF74CFF8246D8E917109D
:10158000401AFEF746FF01465046FEF789FE5946CF
:10159000FEF754FE8246D8F86800FEF73AFF51463F
:1015A000FEF746FE10F1FF4F02D3C8F868901EE028
:1015B000FEF745FF19E0401AFEF72BFF8246D8E9F7
:1015C0001710401AFEF725FF01465046FEF768FE49
:1015D0005946FEF733FEFEF732FFD8F8681008448C
:1015E000C8F86800FF2802D9FF20C8F868007F1CEF
:1015F000962FAFDBC24AD21D02F13901501E8DE891
:1016000007000B1FC14ABF48D8F8381003F09EF9F5
:1016100098F80300411C88F80310082871D94D463A
:1016200088F80390FFF72EFCA8F80C0098F8070044
:101630004FF00109012874D1D8F84070962F70DA64
:1016400040463C2F6DDD45620169B14A042901D055
:10165000491C11E0C0F818904B460C26294605613C
:1016600052F826C00CF10A0CBC4501DD0023042110
:10167000761C102EF4DB83610161D8F81800434614
:1016800088BB00BF02EB8001496842F82010401C73
:101690000F28F7DBD763D8F858104046102901DA35
:1016A000491C81654564876D2946022F02DAC8F816
:1016B000485033E01E46042F09DA0E2052F82070FD
:1016C000401C39441028F9DB4810716424E0082FCD
:1016D0000ADA0C2052F82070401C39441028F9DB3B
:1016E0008810716418E019E0102F0BDA5FF0080021
:1016F00052F82070401C39441028F9DBC81071647E
:101700000AE0F9E05FF0000052F82070401C394414
:101710001028F9DB08117164C8F848009D6109E0E0
:10172000FFE7C8F81050D8F82400042807D0401C60
:10173000C8F8240098F80600012805D071E0C8F820
:101740004850C8F85850F5E7D8F83C704646502F36
:1017500067DD35626E4970694031042801D0401C54
:1017600012E0C6F81C904A460C232846C6F81450CE
:1017700051F823C0ACF10A0CBC4501DA0022042068
:101780005B1C102BF4DBF2617061D8F81C00424640
:10179000C8BB00BF01EB80035B6841F82030401CF0
:1017A0000F28F7DBCF63506D102801DA401C50651D
:1017B000F564736D2846022B01DA15652FE0042BC2
:1017C00009DA0E2351F823705B1C3844102BF9DB27
:1017D000F064401022E0082B09DA0C2351F8237042
:1017E0005B1C3844102BF9DBF064801016E0102BE2
:1017F0000ADA082351F823705B1C3844102BF9DBFC
:10180000F064C0100AE00AE05FF0000351F82370B2
:101810005B1C3844102BF9DBF06400111065D561B6
:1018200008E0C8F81450D8F82000042873D0401CF1
:10183000C8F82000D8F848104FF47A7991FBF9F2F3
:1018400009FB1211642791FBF7F03030C2B2E000BF
:1018500002230621641C009501F032FED8F84810DE
:101860000A2691FBF7F207FB121090FBF6F03030DE
:10187000C2B2E00002230621641C009501F020FEA4
:10188000D8F84800022390FBF6F106FB1100303037
:10189000C2B2E0000621009501F012FED8F8501007
:1018A000022391FBF9F209FB121191FBF7F03030A2
:1018B000C2B230200621009501F002FED8F8501087
:1018C000022391FBF7F207FB121090FBF6F0303089
:1018D000C2B238200621009501F0F2FDD8F8500080
:1018E000022390FBF6F106FB11003030C2B240201B
:1018F0000621009501F0E4FDBDE8FE8FFFFF030027
:10190000000000207C03002000007F43D40500205D
:101910002C080020FFE7C8F85050C8F8545089E759
:101920002DE9F84F924A0A23111F081F02F0A6FE64
:101930008F4D904F303D904EA86A00246863B0F5FB
:10194000000F1ADB3946FEF7ABFCB04215DDA87874
:10195000012812D1AC7068894EF66021884201D20C
:10196000401C6881E98980B2814206D08049E881C3
:1019700001222639814801F039FE686B10F1FF4FD2
:1019800009D380F0004039466863FEF789FCB04215
:1019900001DB0120A870698942F20F720A265820E3
:1019A00060274FF068084FF070094FF0780A9142B5
:1019B00011D9AB46551CB1FBF5F13031CAB2022347
:1019C0000621009401F07CFDBBF80A10B1FBF5F292
:1019D00005FB121110E0B1F57A7F49D302232022D2
:1019E0000621009401F06CFD698942F21070B1FB90
:1019F000F0F200FB1211AB464FF47A75B1FBF5F033
:101A00003030C2B2384602230621009401F058FD5E
:101A1000BBF80A100223B1FBF5F205FB1210642596
:101A2000B0FBF5F03030C2B240460621009401F020
:101A300047FDBBF80A000223B0FBF5F105FB1100DE
:101A4000B0FBF6F2484606213032009401F038FD32
:101A5000BBF80A000223B0FBF6F106FB1102504668
:101A600006213032CDF8004001F02AFDBDE8F88FA4
:101A700063292ED9022320220621009401F020FDA3
:101A80003846022320220621009401F019FD6989BD
:101A90004FF47A70B1FBF0F200FB12116427B1FB36
:101AA000F7F03030C2B2404602230621009401F024
:101AB00007FD69890223B1FBF7F207FB1210B0FBA7
:101AC000F6F2484606213032009401F0F9FC6889AC
:101AD000C0E709294FF002034FF020024FF0060142
:101AE000009422D901F0ECFC384602232022062182
:101AF000009401F0E5FC69896420B1FBF0F200FB81
:101B00001210B0FBF6F24046022306213032009458
:101B100001F0D6FC68890223B0FBF6F106FB110246
:101B2000062148463032009419E001F0C9FC3846DD
:101B3000022320220621009401F0C2FC68890223BE
:101B4000B0FBF6F106FB110240460621303200944C
:101B500001F0B6FC4846022320220621009401F041
:101B6000AFFC022320225046062100947CE70000AF
:101B700030000020000020410000A04020F00008BC
:101B800010B590F821100022022905D004218163AC
:101B900080F82020012010BD01680B6823F00E039F
:101BA0000B6001680B6823F001030B6090F8403074
:101BB000C46B012101FA03F3636080F8211080F8FF
:101BC0002020104610BD000010B590F82110002410
:101BD000022903D00421816301243DE001680A68E1
:101BE00022F00E020A6001680A6822F001020A600F
:101BF0001A4A0168914201D1012121E0174A1432A9
:101C0000914201D110211BE0144A2832914201D1A6
:101C1000891515E0114A3C32914201D189140FE037
:101C20000E4A5032914202D14FF4803108E00B4A03
:101C30006432914202D14FF4801101E04FF0807183
:101C4000064A083A5160012180F82110002180F8ED
:101C50002010416B01B18847204610BD08000240AA
:101C600070B5044600F0BAF90546601C02D004487D
:101C70000078044400F0B2F9401BA042FAD370BDD2
:101C80006C0000202DE9F047054626480F46012646
:101C9000017E01290FD00121814601762868DFF8F5
:101CA00088804CF25034022808D0A2462046FFF724
:101CB000FFFBA8B131E00220BDE8F0872046FFF726
:101CC000F7FB08BB0120FFF793FB2046FFF7F0FB73
:101CD000D8F81010064621F00401C8F810101CE0D6
:101CE0004FF0FF303860AC6811E02046FFF792FB00
:101CF0005046FFF7DDFBD8F81010060021F0020176
:101D0000C8F8101001D03C6007E004F58064D5E904
:101D1000020100EB8120A042E7D8002189F81810C9
:101D20003046C9E74009002000200240034801690D
:101D300041F0800101610020704700000020024056
:101D40002DE9F05F07461C4888460024017E1546B1
:101D50001E46012909D00121814601764CF2503AF4
:101D60005046FFF7A5FB18B122E00220BDE8F09F26
:101D7000012F02D0022F00D00427D346DFF83CA069
:101D8000220128463146FEF7CDF981B208EB440026
:101D9000FFF752FB5846FFF78BFBDAF8102022F0D2
:101DA0000102CAF8102018B9641CE4B2BC42E7D39F
:101DB000002289F81820D9E74009002000200240BD
:101DC000064900200A69120607D5054A4A60054AF5
:101DD0004A600969090600D50120704700200240C9
:101DE00023016745AB89EFCD2DE9F84FDFF8B891B6
:101DF0000024A9F1040B23460F2709F1040AABF1D3
:101E0000040EC9E00125A5402A40AA427DD1674EB3
:101E1000D1F804C0ACEB0608B44532D014DCBCF1F8
:101E2000030F3AD009DCBCF1000F2AD0BCF1010F3E
:101E30001CD0BCF1020F31D11DE0BCF1110F17D045
:101E4000BCF1120F2AD119E0B8F5881F19D006DCB1
:101E5000B8F5803F15D0B8F5801F1FD111E0B8F557
:101E6000001F0ED0B8F5041F18D10AE0CB6815E0AA
:101E7000CB681B1D12E0CB6808330FE0CB680C3336
:101E80000CE08B682BB1012B4FF0080303D04561A8
:101E900004E0042302E0056100E00023FF2A01D8EA
:101EA000064601E000F104064FEA840501D9A5F1D8
:101EB0002005D6F8008007FA05FC28EA0C0803FA8A
:101EC00005F548EA0508C6F800804D68ED0062D5C2
:101ED000374DAE6946F00106AE61AD6924F00306E8
:101EE00005F001050095334D06EB050CDCF80850B4
:101EF000A607360F07FA06F825EA0805DFF8B880C6
:101F0000404503D14FF0000817E044E0DFF8AC8013
:101F1000404502D14FF001080FE0DFF8A4804045B2
:101F200002D14FF0020808E0DFF89880404502D166
:101F30004FF0030801E04FF0040808FA06F848EAF9
:101F40000508CCF808804D68D9F80060ED024D46D0
:101F500001D5164300E096432E604D68DAF8006024
:101F6000AD02554601D5164300E096432E604D68FC
:101F7000DBF80060AD035D4601D5164300E09643F3
:101F80002E604D68DEF80060ED03754601D51643FE
:101F900000E096432E60641C0D682A46E5407FF4FD
:101FA00031AFBDE8F88F00000804014000001110B7
:101FB000001002400000014000080140000C0140F8
:101FC00000100140001401408068084000D001204A
:101FD00070470AB1016170470904FBE70148806856
:101FE000704700006C0000200248816802781144AC
:101FF000816070476C000020074810B5016841F00F
:1020000010010160032000F075F80F2000F006F8C1
:1020100000F024F8002010BD0020024070B50D4DE6
:1020200004464FF47A712878B1FBF0F00A49096848
:10203000B1FBF0F000F0DCFA48B9102C07D2002216
:102040002146501E00F036F800206C6070BD012063
:1020500070BD00006C000020780000200C4808B51E
:10206000816941F001018161816901F00101009103
:10207000C16941F08051C161C06900F08050009099
:102080000448416821F0E06141F00071416008BD01
:102090000010024000000140002809DB00F01F0290
:1020A000012191404009800000F1E020C0F80011BA
:1020B00070470000F0B40E4B1B680C46C3F30223BC
:1020C000C3F10705042D00D90425191D072901D2E4
:1020D000002300E0DB1E012606FA05F1491E21401F
:1020E00099409E40761E16403143F0BC01F02EBE52
:1020F0000CED00E0064900F0070208684FF6FF0308
:10210000184040EA0220034A10430860704700006C
:102110000CED00E00000FA052DE9F0470F46050040
:1021200061D0434E306800F00700B84209D23068F1
:1021300020F0070038433060306800F00700B842F4
:1021400051D128683B4C810712D5400703D5606800
:1021500040F4E06060602878000703D5606840F4D0
:10216000605060606068A96820F0F000084360601B
:102170002878C00728D06868012810D02168022874
:1021800010D0890700292EDA616821F0030101438C
:102190006160FFF723FF804641F288390DE0216836
:1021A0008903EFE78901EDE7FFF718FFA0EB0801CE
:1021B000494502D90320BDE8F0876068696800F0EE
:1021C0000C00B0EB810FEFD1306800F00700B8428F
:1021D0000BD9306820F0070038433060306800F0D9
:1021E0000700B84201D00120E5E72878400705D56F
:1021F0006068E96820F4E0600843606028780007C0
:1022000006D56068296920F4605040EAC10060602A
:1022100000F038F86168084AC1F30311515CC84006
:102220000649086006480068FFF7F8FE0020C2E78C
:1022300000200240001002404650000878000020B4
:10224000700000200448054900684968044AC1F349
:102250000221515CC8407047780000200010024005
:10226000565000080448054900684968044AC1F30B
:10227000C221515CC8407047780000200010024025
:10228000565000080E4A51680E4801F00C03042B0A
:1022900011D0082B0FD10C48C1F38343C903C05C94
:1022A0000AD55168084AC1F34041921E515C054A63
:1022B0005043B0FBF1F070470449484370470000B9
:1022C0000010024000127A003650000800093D005C
:1022D0002DE9F84F040070D02078C04DC00749D0D8
:1022E0006868C0F38100012807D06868C0F38100E6
:1022F000022809D16868C00306D52868800339D54B
:1023000060680028E7D035E06068B0F5803F0BD00A
:1023100010B1B0F5A02F11D0286820F480302860CB
:10232000286820F4802002E0286840F4803028608B
:10233000606890B1FFF752FE06460AE0286840F454
:1023400080202860F0E700BFFFF748FE801B64286C
:1023500073D828688003F7D50CE0FFF73FFE0646E8
:1023600005E000BFFFF73AFE801B6428F0D828681C
:102370008003F7D420789A4E80074FF001094FF080
:10238000000839D5686810F00C0F07D06868C0F3F2
:102390008100022809D16868C00306D42868800734
:1023A00014D52069012808D110E02069B0B1C6F821
:1023B0000090FFF713FE074605E00AE1FFF70EFE67
:1023C000C01B0228C4D828688007F7D5286861692F
:1023D00020F0F80040EAC10028600DE0C6F8008057
:1023E000FFF7FCFD074604E0FFF7F8FDC01B0228DD
:1023F00023D828688007F7D4207800072CD579489F
:10240000A169D9B1C0F80090FFF7E8FD074604E0E4
:10241000FFF7E4FDC01B02280FD8686A8007F7D5D4
:1024200071484FF4FA510068B0FBF1F0009000BF22
:102430000098411E0091FAD20EE080E0C0F80080C2
:10244000FFF7CCFD074604E0FFF7C8FDC01B0228DC
:1024500075D8686A8007F7D42078400760D5E869A6
:102460000027C00008D4E86940F08050E861E869BE
:10247000012700F0805000905C480168C90513D422
:102480000168834641F480710160FFF7A7FD824631
:1024900006E000BFFFF7A2FDA0EB0A0064284ED8BB
:1024A000DBF80000C005F5D5E06801280AD008B1C6
:1024B000052813D0286A20F001002862286A20F03D
:1024C000040002E0286A40F001002862E06841F25E
:1024D000883B98B1FFF782FD82460BE0286A40F006
:1024E00004002862EEE700BFFFF778FDA0EB0A01C9
:1024F00059455AD8286A8007F6D50CE0FFF76EFDDB
:10250000824605E0FFF76AFDA0EB0A0159454CD869
:10251000286A8007F6D41FB1E86920F08050E8618E
:10252000E06988B36968C1F38101022944D00228B7
:10253000C6F8608004D0FFF751FD044638E034E06F
:10254000FFF74CFD074604E0FFF748FDC01B0228DB
:102550002BD828688001F7D4206AB0F5803F05D1D8
:102560006868A16820F4003008436860D4E9080175
:102570000843696821F4741108436860C6F86090E4
:10258000FFF72CFD044606E025E000BFFFF726FD1F
:10259000001B022809D828688001F7D51BE000BF7E
:1025A000FFF71CFD001B022802D90320BDE8F88FAD
:1025B00028688001F4D40EE00128F7D06868226A08
:1025C00000F48031914204D1616A00F470108842B5
:1025D00001D00120EAE70020E8E7000000100240F7
:1025E0000000424280044242780000200070004017
:1025F00010B5401EB0F1807F01D3012010BD4FF017
:10260000E02460610F21601701F0A0FB0020A061B1
:1026100007202061002010BD7047704770B590F80A
:102620003C20012A26D0012480F83C40022280F878
:102630003D2003685A689D6822F070060A6832439C
:102640005A600D4B02689A4208D0B2F1804F05D013
:102650000A4B9A4202D00A4B9A4204D1496825F0AB
:1026600080031943916080F83D40002180F83C10C0
:10267000084670BD022070BD002C014000040040DF
:102680000008004010B5040003D094F83D0010B1DC
:1026900007E0012010BD002084F83C00204600F037
:1026A0001FF8022084F83D00211D206801F03EF94A
:1026B000012084F8460084F83E0084F83F0084F846
:1026C000400084F8410084F8420084F8430084F814
:1026D000440084F8450084F83D00002010BD00004F
:1026E00008B500680B49884212D10B48816941F452
:1026F000006181618069002200F400600090114651
:102700001920FFF7D7FCBDE808401920FFF7C4BC2B
:1027100008BD0000002C01400010024070B50446C6
:1027200090F83C000025012817D0012684F83C6071
:10273000022084F83D002068826822F0770222F4AB
:102740007F4282600868502838D00DDC20284FD0A6
:1027500005DC90B3102811D14AE0022070BD30286A
:1027600046D040280AD13BE060282FD070280DD0F9
:10277000B0F5805F03D0B0F5005F12D0012584F87A
:102780003D60002084F83C00284670BDCB68D1E94C
:102790000121206801F006F92068816841F0770185
:1027A00009E0CB68D1E90121206801F0FBF820683D
:1027B000816841F480418160E1E719E0CA684968B5
:1027C000206801F001F95021206806E0CA684968D4
:1027D000206801F00AF96021206801F0EDF8CEE7E9
:1027E000CA684968206801F0EFF840212068F4E7E2
:1027F000226801461046F0E770472DE9F041044693
:102800000068C66805694FF00007A90713D5B1072E
:1028100011D5F91E016101202077206880698007A9
:10282000204602D0FFF7E8FF04E000F07EF82046E3
:1028300000F07CF82777680716D5700714D5216853
:102840006FF004000861022020772068806910F48E
:10285000407F204602D0FFF7CFFF04E000F065F88C
:10286000204600F063F82777280715D5300713D5E1
:1028700021686FF008000861042020772068C06993
:102880008007204602D0FFF7B7FF04E000F04DF8C4
:10289000204600F04BF82777E80616D5F00614D549
:1028A00021686FF010000861082020772068C06957
:1028B00010F4407F204602D0FFF79EFF04E000F0B6
:1028C00034F8204600F032F82777E80708D0F00700
:1028D00006D021686FF001000861204600F027F85B
:1028E000280608D5300606D521686FF080000861FB
:1028F0002046FFF791FE680608D5700606D52168C8
:102900006FF040000861204600F012F8A8060AD5D2
:10291000B00608D521686FF0200008612046BDE8A8
:10292000F041FFF77ABEBDE8F0817047704770470D
:102930007047704770470000F8B5016804460868A2
:10294000CA684B6910F00F0F4FF0000559D003F023
:10295000010602F49077374365D0C10705D0D10551
:1029600003D5616C41F001016164410705D5D907C8
:1029700003D0616C41F002016164810705D5D9077C
:1029800003D0616C41F004016164010707D502F0D6
:102990002001314303D0616C41F008016164616C36
:1029A00000293AD0800604D5900602D5204601F0D1
:1029B0005DF820684069616CC0F38010090700D49D
:1029C00060B3204601F02BF820684069400621D50D
:1029D0002068143050E8001F21F0400140E8001248
:1029E000002AF5D1E06BA8B16D494163E06BFFF7B8
:1029F000EBF8002811D0E06B416B01B0BDE8F0406E
:102A0000084783060FD593060DD52046BDE8F8404C
:102A100001F02CB82046FFF78DFFF8BD2046FFF7E8
:102A200089FF6564F8BD266B2023012E7CD1C60684
:102A30007AD5D60678D508684868009048694FF07E
:102A40000206400640D5E16B086840680004000CAF
:102A5000E8D0A28D8242E5D9E085886920282DD072
:102A600020680C3050E8001F21F4807140E800120B
:102A7000002AF5D12068143050E8001F21F0010130
:102A800040E80012002AF5D12068143050E8001FF9
:102A900021F0400140E80012002AF5D184F84230CC
:102AA000256320680C3050E8001F21F0100140E839
:102AB0000012002AF5D1E06BFFF762F86663A08D83
:102AC000E18D401A81B22AE0A08DE18D401A81B2D9
:102AD000E08D0028A6D00029A4D022680C3252E84C
:102AE000000F20F4907042E80007002FF5D1206815
:102AF000143050E8002F22F0010240E80027002F98
:102B0000F5D184F84230256320680C3050E8002F5E
:102B100022F0100240E80023002BF5D16663204626
:102B2000FFF707FFF8BDFFE705062BD5150629D5EA
:102B300094F841002128F5D1A068B0F5805F01D15B
:102B40002069B0B1206A411C216221680078486088
:102B5000E08C401E0004000CE084E3D12068C168D2
:102B600021F08001C1602068C16841F04001C1606E
:102B7000D8E7206A0088C0F308004860206A801CFB
:102B80002062E5E74006CDD55006CBD5CA68204681
:102B900022F04002CA6084F8413000F0C6F8C1E774
:102BA0000F3A000870B5040004D094F841000025E5
:102BB00010B106E0012070BD84F84050204600F0BE
:102BC00023F8242084F841002068C16821F40051D2
:102BD000C160204600F0ACFF2068016921F49041FB
:102BE00001612068416921F02A0141612068C168C2
:102BF00041F40051C1606564202084F8410084F8EC
:102C000042006563002070BD30B585B0002400949B
:102C10000194029403940068184988422CD1184802
:102C2000816941F480418161816901F480410491AD
:102C3000816941F0040181618069124D00F0040056
:102C400004904FF400700090022001900320039044
:102C500069462846FFF7C8F82815CDE900046946FB
:102C600028460294FFF7C0F8002211462520FFF7FE
:102C700021FA2520FFF710FA05B030BD00380140D9
:102C8000001002400008014070472DE9F843044657
:102C900090F84100984616460D46202802D00220A2
:102CA000BDE8F88385B17EB100206064212084F8FE
:102CB0004100FFF793F9A6848146E684A0682027A7
:102CC000B0F5805F02D003E00120E9E7206910B190
:102CD0002E4600250EE000260CE08021204600F064
:102CE00083FFA8B9C6B116F8010B21684860E08CD3
:102CF000401EE084E08C4B464FF00002CDF800808F
:102D00000028EAD14FF04001204600F06DFF40B1AD
:102D100084F841700320C3E735F8020BC0F30800C4
:102D2000E3E784F841700020BAE77047FEE700004F
:102D3000FEB5204D00212048A966C5E917011F48AE
:102D400000F0D5FC02F04AF805F10801002002F07D
:102D500011F801F03BFF9620194F002407F5167675
:102D6000C5F8380006EB840107EB840001F074FF1E
:102D700056F82400E96D884200D2E865296E884241
:102D800000D92866A86B641C8442EBDB094A06EB79
:102D90008400D21D50F8040C02F139016866501EFF
:102DA0008DE807000B1F074A0548A96B01F0CEFD0F
:102DB000FEBD000000000020FFFF03009C0000207B
:102DC0007C030020D405002000B585B000200190D0
:102DD00003900A48816941F0080181618069694670
:102DE00000F0080004904FF4704000900120029021
:102DF0000348FEF7F9FF05B000BD000000100240D7
:102E0000000C01402DE9F0470126304D304C3703CE
:102E10004FF400584FF480494FF4004A08B12E7027
:102E200001E0287898B139462046FFF7CDF8A8B1DF
:102E300041462046FFF7C8F880B149462046FFF7D3
:102E4000C3F858B151462046FFF7BEF830B13946B5
:102E50002046FFF7B9F8012823D035E00A20FEF715
:102E600029F90020287039462046FFF7ADF878B1DF
:102E700041462046FFF7A8F868B149462046FFF7CB
:102E8000A3F850B151462046FFF79EF838B11BE039
:102E90000120BDE8F0870220FBE70320F9E70420CA
:102EA000F7E741462046FFF78FF801280CD1494645
:102EB0002046FFF789F8012806D151462046FFF742
:102EC00083F8012800D12E700020E2E7740300206F
:102ED000000C01402DE9F0410020FFF793FF00278F
:102EE000B24D012813D00126B14C022818D0032876
:102EF00071D0042812D16F81012205F10A01AD4879
:102F000000F074FBBDE8F0413220FEF7D3B828781A
:102F1000401CC0B22870072800D92F70BDE8F0818E
:102F20002878012809D1E088401CE080E0886428E6
:102F300000D1E7809E48FDF7F1FD2878022824D1D2
:102F40002079401C207120790D2800D1267120792C
:102F500004280CD02079062809D02079092806D029
:102F600020790B2803D02079022804D00AE0E078E9
:102F70001E2806D806E068780128E07809D01C28C9
:102F800000D9E6708A48FDF7C9FD2878032803D0E8
:102F900033E01D28F5D8F5E7E078401CE070207993
:102FA000012819D02079032816D02079052813D0BC
:102FB0002079072810D0207908280DD020790A28F8
:102FC0000AD020790C2807D02079022808D0E07890
:102FD0001F280ED00EE047E0E078202809D009E055
:102FE00068780128E07802D01D2802D002E01E286F
:102FF00000D1E6706E48FDF791FD2878042809D1CC
:103000006079401C60716079082800D16671684859
:10301000FDF784FD2878052809D1A078401CA07010
:10302000A078182800D1A7706148FDF777FD2878AF
:10303000062809D16078401C607060783C2800D177
:1030400067705B48FDF76AFD287807287FF466AF54
:103050002078401C207020783C2800D12770BDE8E3
:10306000F0415348FDF75ABD2878012809D1E0887E
:1030700008B96420E080E088401EE0804C48FDF7FD
:103080004DFD2878022825D12079012801D10D2075
:1030900020712079401E2071207904280CD02079DD
:1030A000062809D02079092806D020790B2803D0DA
:1030B0002079022804D00AE0E0781E2806D806E02D
:1030C00068780128E07809D01C2800D9E6703848D3
:1030D000FDF724FD2878032803D034E01D28F5D817
:1030E000F5E7E078401EE0702079012817D02079BC
:1030F000032814D02079052811D0207907280ED074
:10310000207908280BD020790A2808D020790C28AB
:1031100005D02079022806D0E07878B110E0E07878
:1031200070B91F200BE068780128E07801D018B151
:1031300006E028B91D2002E01C2000E01E20E070FF
:103140001B48FDF7EBFC287804280AD16079012898
:1031500001D1082060716079401E60711448FDF74C
:10316000DDFC2878052809D1A07808B91820A070BE
:10317000A078401EA0700E48FDF7D0FC28783C26B1
:10318000062808D1607800B966706078401E6070CB
:103190000748FDF7C3FC287807287FF4BFAE2078E6
:1031A00000B926702078401E207058E700000020EB
:1031B0006C03002020F0000870B586B00024204881
:1031C0000094019402940394816941F0200181618B
:1031D000816901F020010491816941F00801816158
:1031E000816901F008010491816941F00401816164
:1031F000816901F004010491816941F0100181614C
:103200008069104E00F01000049000220621304624
:10321000FEF7DFFE06200125CDE900050220CDE9FD
:10322000024069463046FEF7DFFD4FF470408DE8FE
:10323000310069463046FEF7D7FD06B070BD00008C
:1032400000100240000C014010B586B00024174861
:10325000009401940294039404941349059401602A
:103260004721C0E901144FF47A71C0E903144461A5
:103270008461FFF707FA08B1FEF7B8F84FF4805001
:10328000009069460948FFF749FA08B1FEF7AEF821
:10329000049404A905480594FFF7C0F9002801D05B
:1032A000FEF7A4F806B010BD002C0140AC080020C9
:1032B0000C4810B50A4901604FF4E131416000212A
:1032C00081600C22C160C0E904128161C161FFF715
:1032D00069FC002803D0BDE81040FEF787B810BD98
:1032E00000380140F4080020FEE7FEE7002000F06F
:1032F00001B8000070B506465FF0000404F1B000AC
:10330000C1B2002000F040F90021084600F03CF96D
:103310001021002000F038F900253146402000F04F
:1033200033F96D1CEDB2802DF7D3641CE4B2082C88
:10333000E4D370BD10B53C4800F0D9F96420FDF726
:10334000B9FEAE21002000F01FF92021002000F07E
:103350001BF91021002000F017F9B021002000F027
:1033600013F9C821002000F00FF90021084600F0F1
:103370000BF91021002000F007F94021002000F097
:1033800003F98121002000F0FFF8FF21002000F068
:10339000FBF8A121002000F0F7F8A621002000F0A2
:1033A000F3F8A821002000F0EFF83F21002000F002
:1033B000EBF8A421002000F0E7F8D321002000F072
:1033C000E3F80021084600F0DFF8D521002000F0E6
:1033D000DBF8F021002000F0D7F8D921002000F020
:1033E000D3F82221002000F0CFF8DA21002000F0ED
:1033F000CBF81221002000F0C7F8DB21002000F0FC
:10340000C3F82021002000F0BFF88D21002000F03B
:10341000BBF81421002000F0B7F8AF21BDE8104040
:10342000002000F0B1B800007C00002010B5044678
:10343000B031C9B2002000F0A7F8102040EA141102
:10344000002000F0A1F804F00F0040F00101BDE8F9
:103450001040002000F098B82DE9F0471F4688463C
:10346000814600255401FFF7E1FF144E012F1CD0C7
:10347000315D402000F088F86D1CEDB2641C102D09
:10348000F4D308F10100C1B24846FFF7CFFF002591
:10349000012F0ED0315D402000F076F86D1CEDB2AA
:1034A000641C102DF4D3BDE8F087305DC043C1B279
:1034B000DFE7305DC043C1B2EDE70000AC000020A3
:1034C0002DE9F0478046203A0024481C089F0D460D
:1034D000D6B2022B19D0B8F17E0F01D9A046C5B2E1
:1034E00029464046FFF7A2FF254906EB460001EBBF
:1034F0004005012F40D0295D402000F045F8641CB4
:10350000E4B2062CF5D3BDE8F087B8F1780F02D904
:103510004FF00008C5B229464046FFF787FFDFF8A5
:103520006490012F04EB06111DD019F80110402002
:1035300000F02AF8641CE4B2082CF2D36D1CE9B246
:103540004046FFF773FF00244D4604EB0610012FA1
:1035500028440DD0017A402000F016F8641CE4B233
:10356000082CF2D3CFE719F80100C043C1B2DEE75F
:10357000007AC043C1B2EEE7285DC043C1B2BBE7E9
:103580005E5000088652000870B504460D460E488D
:1035900000F049F978210C4800F009F90A4800F0D8
:1035A0006EF92146084800F002F9074800F067F973
:1035B0002946054800F0FBF8034800F060F9BDE833
:1035C0007040014800F048B97C00002070470000BE
:1035D00010B5002306E000BF30F8024B21F813407D
:1035E0005B1C9BB29342F7D310BD00002DE9F04F56
:1035F000834685B00020ABF1006415468A460490EE
:10360000B4F5803F57D2FEF7DBFBA70AC4F34806A8
:10361000C6F50074A54200D82C46DFF8A09000BF84
:103620004FF0006000EB872080464FF40072234982
:10363000FFF7CEFF00204FF6FF7106E0331839F890
:1036400013208A4203D1401C80B2A042F6D3A0428C
:103650002BD2002000900120CDE9028004A9684609
:10366000FEF710FB0020494607E000BF3AF81020A3
:103670008319401C21F8132080B2A042F6D30F49D1
:1036800040464FF4007200BF00F01AF8A54210D077
:10369000281B0AEB440AA344002685B24FF40074A9
:1036A0007F1CA542BCD82C46BAE722465146584654
:1036B000EAE7FEF73BFB05B0BDE8F08F100E0020F7
:1036C0002DE9F04116460F46054600240AE000BFEA
:1036D00037F81420002329460120FEF731FB641C33
:1036E000A4B2AD1CB442F3D3BDE8F08170477FB5FE
:1036F000002504460095019502950395006801F0A8
:1037000053FCA06801F050FC1120CDE90105032015
:103710000390A088009069462068FEF765FBA089A9
:1037200000906946A068FEF75FFBA168A089086168
:103730002168A08808617FBD70B504468089A168B2
:10374000002508612E4668062168050EA0880861DC
:103750000420FDF7B1FCA189A068FEF735FC012823
:1037600001D16D1CEDB22168A08848610420FDF7ED
:10377000A3FC761CF6B2082EE5D3284670BD10B522
:1037800004468089A16848610420FDF795FC216802
:10379000A08808610420FDF78FFC2168A08848619B
:1037A0000420FDF789FCA168A089086110BD70B5EF
:1037B0000E46044600253006A089A16801D508619F
:1037C00000E048610420FDF777FC2168A0880861CB
:1037D0000420FDF771FC2168A0884861072D02D103
:1037E000A168A08908617006060E0420FDF764FC3C
:1037F0006D1CEDB2082DDED370BD10B50446808976
:10380000A16808610420FDF757FC2168A0880861C1
:103810000420FDF751FC2168A0884861BDE81040F4
:103820000420FDF749BC10B504468089A1680861F1
:103830002168A08808610420FDF73EFCA168A089EA
:1038400048610420FDF738FC2168A0884861BDE884
:1038500010400420FDF730BC10B504468089A168F3
:1038600048612168A08808610420FDF725FCA16853
:10387000A0890861BDE810400420FDF71DBC70B5AB
:1038800004468089A16808610420FDF715FC2168C1
:10389000A08808610420FDF70FFCA189A068FEF74D
:1038A00093FB012808D000252168A08848610420E6
:1038B000FDF702FC284670BD0125F5E7FEF794BB35
:1038C00030B58FB028216846FCF743FC14210AA8C4
:1038D000FCF73FFC01210804CDE90010002402940C
:1038E00002250491CDE907504FF4E0100990684695
:1038F000FEF7EEFC08B172B6FEE70F20CDE90A052F
:103900004FF48060CDE90C4002210AA80E94FEF726
:1039100003FC002801D072B6FEE70FB030BD70473F
:103920000148FEF76ABF0000AC080020F0B502684D
:10393000194B1A4C1A4D4FF08047984205D0B842A7
:1039400003D0A04201D0A84203D122F070064A68F9
:103950003243984205D0B84203D0A04201D0A842D9
:1039600003D122F44074CA6822434C6922F08002D9
:10397000224302608A68C2620A688262984201D168
:1039800009690163012141610169C90703D0016926
:1039900021F001010161F0BD002C01400004004054
:1039A0000008004010B5846842EA032224F47F44F2
:1039B0000A432243826010BD826822F070020A43EB
:1039C00042F007018160704710B5036A046A24F071
:1039D00001040462846924F0F00444EA021423F030
:1039E0000A020A438461026210BD10B5036A046AC8
:1039F00024F010040462846923F0A00324F47044CA
:103A000044EA023243EA01118261016210BD10B53D
:103A1000406A0021C185C184FEF78CFF10BD01689A
:103A20000C3151E8002F22F4907241E80023002B62
:103A3000F5D10168143151E8002F22F0010241E86C
:103A40000023002BF5D1016B012909D101680C314C
:103A500051E8002F22F0100241E80023002BF5D19D
:103A6000202180F8421000210163704708B590F8CA
:103A70004210222901D0022008BD82684FF48053F1
:103A80009A4201D1016921B1816A9A421BD04AB19F
:103A90000AE00268816A5268C2F308020A80816AF9
:103AA000891C08E0026972B10268526802F07F0264
:103AB0000A70816A491C8162C18D491E0904090C82
:103AC000C18503D01BE002685268F1E70168CA684B
:103AD00022F02002CA600168CA6822F48072CA60BB
:103AE00001684A6922F001024A61202180F84210EF
:103AF00000214163026B012A03D0FFF7C5F80020C3
:103B000008BD016301680C3151E8002F22F010025A
:103B100041E80023002BF5D101680A68D20602D5DE
:103B20000A6849680091818DFEF703FFE7E700000E
:103B300070B5044600680169E26821F44051114300
:103B400001612169A0680843616908432168CA6866
:103B500041F20C639A430243CA6020684169A2693A
:103B600021F44071114341611E492068884202D10D
:103B7000FEF778FB01E0FEF765FB00EBC00101EB0F
:103B80000012606864218000B2FBF0F3B3FBF1F334
:103B90006FF018067343B2FBF0F5B2FBF0F605EBDD
:103BA0008305322303EB0515B5FBF1F5B6FBF1F602
:103BB00005F0F00505EB0615B2FBF0F6B2FBF0F0F0
:103BC000B0FBF1F06FF01802504306EB800003EBFE
:103BD0000010B0FBF1F0216800F00F00284488606D
:103BE00070BD0000003801402DE9F84398461746A3
:103BF0000D460446089E24E0701C22D0FEF7EEF924
:103C0000A0EB0800B0421AD8CEB12068C1684907BD
:103C100017D5802D15D0402D13D00168C943090751
:103C20000FD401680025406800902046FFF7F7FE9A
:103C30000820606484F840500120BDE8F883032028
:103C4000FBE72068006835EA000004D00020B84295
:103C5000D2D00020F1E70120F9E700000148FEF78B
:103C60006BBE0000F4080020FEE7000010B51E48FF
:103C700001781E4C2279914235D00078207160790C
:103C800000282ED00020607100282CD0B4F90C0040
:103C9000FCF7B6FB1649FCF703FBFCF708FC0246F1
:103CA0000B4614A000F042F80A20FDF703FA15A015
:103CB000A16C00F03BF80A20FDF7FCF914A0216D7F
:103CC00000F034F80A20FDF7F5F9618913A000F03F
:103CD0002DF80A20FDF7EEF9BDE8104012A000F023
:103CE00025B80120CFE710BD6C03002000000020A4
:103CF0000000204154656D703A25342E3166432012
:103D0000200D0A0048523A256420200D0A000000C8
:103D100053704F323A256420200D0A0053746570A9
:103D20003A256420200D0A000D0A00000FB4054B4F
:103D300010B503A9044A029800F0EAF810BC5DF837
:103D400014FB0000F1470008780300200907090E62
:103D5000002804DB00F1E02080F80014704700F038
:103D60000F0000F1E02080F8141D704702E008C841
:103D7000121F08C1002AFAD170477047002001E0E5
:103D800001C1121F002AFBD1704700002DE9FF5F1F
:103D900082B00021DDE90430020DDDF840B00343BC
:103DA00018D044F61050A2F2FF3242431514119875
:103DB00001281FD0A5EB0B00401C5FEA000A4FF062
:103DC00000064E4FDFF83891B046504615D5CAF17F
:103DD000000413E0119801244AA3012801D16FEADD
:103DE0000B010298119AC0E90031C0E9024206B005
:103DF000BDE8F09FCBF10000DFE704460021404A18
:103E0000491842EB0450CDE9001012E0E00707D05A
:103E100032463B4640464946FCF780FA8046894692
:103E200032463B4610461946FCF778FA06460F46DE
:103E30006410002CEAD1DDE90401DDE90023BAF1C8
:103E4000000F06DAFCF76AFA42464B46FCF766FAC0
:103E500005E0FCF7C1FC42464B46FCF7BDFC0446BE
:103E60000E460022284BFCF73FFD03D84FF0FF30F1
:103E7000014607E00022254B20463146FCF705FCB1
:103E8000FCF719FD102409E0002C0ADB0A220023AC
:103E9000FCF736FB039B30321A55641E50EA0102D0
:103EA000F2D1641C039AC4F111031444119A012A3B
:103EB00003D0012208430DD10AE0084304D00020BA
:103EC0004FF0110B119072E7A3EB0B056D1E0DE087
:103ED0005B4504DD4FF0000205F1010504E003DA63
:103EE0004FF00002A5F10105002AECD002981199CB
:103EF000C0E90231C0E9004579E700000000144044
:103F00000000F03F300000000000F0430000E03F00
:103F10002DE9FF4F95B09B468946064600250FE2E6
:103F2000252877D100242746F84A0121059400E08E
:103F3000044316F8013F203B01FA03F01042F7D189
:103F400030782A2811D06FF02F033078A0F130029A
:103F5000092A16D8059A44F0020402EB820203EB08
:103F600042021044761C0590EFE759F8042B0592A5
:103F7000002A03DA504244F40054059044F002044D
:103F8000761C30782E2816D116F8010F44F0040460
:103F90002A280DD06FF02F023078A0F13003092BC2
:103FA00009D807EB870302EB4303C718761CF3E736
:103FB00059F8047B761C30786C280FD006DC4C282E
:103FC00017D068280DD06A2814D104E0742810D0C6
:103FD0007A280FD10DE044F400140AE044F4801470
:103FE00001E044F440147278824202D104F5801456
:103FF000761C761C307866280BD013DC582877D0D6
:1040000009DC002875D04528F6D04628F4D047288A
:104010001AD19DE118E0632835D0642879D065284D
:1040200012D195E1702873D008DC6728F1D0692897
:104030006FD06E280DD06F2806D1B5E073282CD034
:10404000752875D0782874D05A46179990476D1CFA
:1040500075E1C4F30250022809D003280DD0D9F825
:10406000001004280DD00D6009F1040967E1D9F8AA
:104070000010EA17C1E90052F6E7D9F800100D80E8
:10408000F2E70D70F0E719F8041B8DF8001000201E
:104090008DF80100EA46012003E059F804AB4FF027
:1040A000FF3061074FF0000102D40DE008F101017B
:1040B0008846B9420FDA8045F8DB1AF80810002963
:1040C000F4D108E008F1010188468142FADB1AF8D0
:1040D00008100029F6D105985B46A0EB0807214699
:1040E0003846179A00F094FA284400EB080507E0D8
:1040F0004DE029E10DE01AF8010B5A461799904757
:10410000B8F10108F7D25B4621463846179A13E109
:1041100042E00A220092C4F302524FF0000A022A3F
:1041200008D059F804CB032A4FEAEC710AD00DE00D
:1041300029E02AE009F1070121F00702F2E802C1B3
:10414000914609E00FFA8CFC4FEAEC71042A03D186
:104150004FFA8CFC4FEAEC71002907DA0A4600217D
:10416000DCF1000C61EB02012D2202E0220504D5F6
:104170002B228DF80420012203E0E20701D0202247
:10418000F7E7904659E00A2102E010220DE01021E5
:104190004FF0000A00910BE010224FF0000A44F0AB
:1041A00004040827009203E008224FF0000A00925E
:1041B000C4F30252022A05D059F804CB0021032A85
:1041C00008D009E009F1070121F00702F2E802C175
:1041D000914605E01FFA8CFC042A01D10CF0FF0C7B
:1041E0004FF00008220728D5702806D0009B83F0E6
:1041F000100353EA0A0305D00EE040228DF8042094
:10420000012208E05CEA010206D030228DF8042089
:104210008DF8050002229046009B83F0080353EAC4
:104220000A030AD15CEA010201D1620705D53022F6
:104230008DF804204FF001087F1E582804D034A0C8
:1042400003900EA802900DE036A0F9E753466046B1
:10425000009AFCF755F984460398825C0298401E48
:10426000029002705CEA0100F0D1029806A9081AD7
:1042700000F1200A600702D524F4803400E0012711
:10428000574502DDA7EB0A0000E0002000EB0A0121
:10429000009005984144401A0590E00306D45B461F
:1042A0002146179A059800F0B3F90544002706E067
:1042B00001A85A46C05D179990476D1C7F1C474561
:1042C000F6DBE0030CD55B462146179A059800F013
:1042D0009FF9054404E030205A46179990476D1C19
:1042E0000099481E00900029F5DC08E00298029928
:1042F0005A460078491C0291179990476D1CBAF1F3
:104300000001AAF1010AF1DC65E1000009280100C1
:10431000303132333435363738396162636465663B
:1043200000000000303132333435363738394142FD
:10433000434445460000000000F058F90544761C4F
:10434000307800287FF4ECAD19B02846BDE8F08F36
:10435000620700D4062709F1070222F0070CFCE8E7
:104360000223E14603F000485FEA080C02D00FF296
:10437000702C0DE05FEA045C02D50FF2682C07E0B8
:104380005FEAC47C02D00FF2602C01E0AFF2700C47
:104390004FF0FF3823F00043CDF850C065280CD013
:1043A00006DC452809D046281DD047283DD13DE0F0
:1043B000662818D067287ED138E00021112F01DB54
:1043C000112000E0781CCDE9000106A90EA8FFF736
:1043D000DDFCDDE90F010E9A03910021009207F147
:1043E000010A04914DE04FF000400097CDE9011023
:1043F00006A90EA8FFF7CAFCDDE90F0203920E9B87
:1044000011990022DDF80CA00093049211B9791CD7
:1044100000EB010AB7EB0A0004D4C0F1FF3007F14A
:10442000010A0490AAEB0700019044E0012F00DA92
:1044300001270021112F01DD112000E03846CDE9D0
:10444000000106A90EA8FFF7A1FCDDE90F010E9AF5
:104450000391002104910092BA4621070CD40399DC
:10446000514500DA8A46BAF1010F05DD009AAAF13A
:104470000101515C302908D0B84202DA10F1040F72
:1044800006DA0121CDE9011015E0AAF10101E9E701
:10449000002805DC049901440491AAEB000102E024
:1044A000411C514500DD8A460499401A401C019088
:1044B0004FF000400290200704D40198504501DBE2
:1044C000CDF8048000208DF84F0002980DF14F07C1
:1044D000B0F1004F25D02B200E9002984FF002082B
:1044E00000280CDA404202902D200E9007E00A21AD
:1044F0000298FBF7EFFF3031029007F8011DB8F189
:104500000001A8F10108F2DC02980028EFD1791E21
:104510000E980870307800F0200040F0450007F851
:10452000020D12A8C01B00F107081498007800B112
:10453000012000EB0A01019801EBE071059841446C
:10454000401A401E0590E00306D45B462146179AA8
:10455000059800F05DF805441498007818B15A46A3
:10456000179990476D1CE00324D55B462146179AA6
:10457000059800F04DF805441CE00498002807DB7E
:10458000DDE90301884203DD0098405C179901E0F2
:10459000179930205A469047049805F10105401CB0
:1045A00004900198401E019004D12E205A4617997C
:1045B00090476D1CBAF10001AAF1010ADDDC05E0AB
:1045C00017F8010B5A46179990476D1CB8F1000176
:1045D000A8F10108F4DC5B462146179A0598ABE682
:1045E0002D0000002B000000200000002DE9F0410C
:1045F000044600251E461746880404D405E03946C3
:104600002020B0476D1C641EF9D52846BDE8F08116
:104610002DE9F041044600251E469046C80301D509
:10462000302700E02027880404D505E041463846BD
:10463000B0476D1C641EF9D52846BDE8F08110B561
:104640000B21312000F0B2F80B212C2000F0AEF845
:1046500008212D2000F0AAF880212E2000F0A6F8D5
:1046600000211E2000F0A2F800211F2000F09EF87B
:104670000521BDE81040202000F098B82DE9FE4348
:1046800006464FF00000306008605FEA03081446F9
:104690000D46106038D0002721E002AA01A9684623
:1046A00000F034F8BDF90000FBF7AAFE3168FBF713
:1046B0006DFD3060BDF90400FBF7A2FE2968FBF731
:1046C00065FD2860BDF90800FBF79AFE2168FBF73D
:1046D0005DFD20600520FCF7EDFC7F1CFFB240462D
:1046E0004745DAD3FBF795FE074639463068FBF7B6
:1046F000D7FD306039462868FBF7D2FD286039467F
:104700002068FBF7CDFD2060BDE8FE832DE9FC416C
:10471000064690460D462448FFF785F8A621224814
:10472000FFF745F82048FFF7AAF832211E48FFF7A7
:104730003EF81D48FFF7A3F81B48FFF774F8A721C0
:104740001948FFF734F81848FFF799F800246F4626
:104750001548FEF7F1FF38551348052C20D0FFF718
:104760000EF8641CE4B2062CF2D30F48FFF774F87D
:104770009DF800009DF8011000EB012030809DF8AD
:1047800002009DF8031000EB012028809DF8040032
:104790009DF8051000EB0120A8F80000BDE8FC81A1
:1047A000FFF72BF8DDE700008C00002070B5044611
:1047B0000D460E48FFF737F8A6210C48FEF7F7FF25
:1047C0000A48FFF75CF821460848FEF7F0FF074863
:1047D000FFF755F829460548FEF7E9FF0348FFF7BC
:1047E0004EF8BDE870400148FFF736B88C00002055
:1047F00013B54FF6FF73012269460248FEF745FAEA
:1048000000981CBDF4080020FDF7F6FBFFF758F8F0
:10481000FEF7D2FCFEF74CFDFEF716FDFCF738FC68
:10482000FEF788FDFEF7D0FAC820FCF743FCFCF742
:10483000D3F8FEF75BFDFCF753FB3448FCF702FAB4
:104840006420FCF737FC3148FCF702F95FF0000404
:1048500004F10800C2B22007000E00230221FEF777
:10486000FBFD641CE4B2082CF2D34FF47A742046AA
:10487000FCF720FC2046FCF71DFCFEF737FD00246A
:1048800004F11000C2B22007000E00230421FEF73D
:10489000E3FD641CE4B2022CF2D300245FF0300587
:1048A00004F11200C2B205EB0410C0B200230421CF
:1048B000FEF7D2FD641CE4B2022CF1D300245F2584
:1048C00004F11400C2B205EB0410C0B200230421AD
:1048D000FEF7C2FD641CE4B2022CF1D30C48FEF7D3
:1048E00006FFFFF7ACFEFEF723FA0A4CFEF7F2FADA
:1048F000FCF738FC207828B9FCF7F2FBFDF710F83C
:10490000FCF700FEFFF7B2F9F0E700006C030020AF
:104910008C000020000000202DE9F8418046DDE9F0
:104920000706009017460C46099D404600F08AFA9B
:1049300033463A462146404600F0C8FA2068A8426D
:1049400000DB28462060BDE8F88100002DE9FF4F1C
:10495000A1B00D46DDE92EAB804600219946084600
:1049600004E000BF58F82020401C1144A842F9DBA5
:10497000B1FBF5F10020914C06E000BF58F8202073
:104980008A1A44F82020401CA842F7DB5FF00000A0
:1049900004EB800154F820304A681A44D1E902310E
:1049A00019441144CA1701EB9271891044F8201080
:1049B000401C9228ECDB00214FEA010054F8202033
:1049C000401C11449628F9DB962091FBF0F01E283C
:1049D00001DA1E2002E03C2800DD3C2000210F46C9
:1049E0000DF10C0646F82170491C0F29FADB042250
:1049F000CDE900020F2102919623704A1EA930468C
:104A0000FFF78AFF1E99002202291ADB012009E024
:104A100006EB800C56F820305CF804CC401CA3EB6D
:104A20000C031A448842F3DB491E92FBF1F040F676
:104A3000B83191FBF0F1CBF80010309901200870EB
:104A400004E05F48CBF8000030990F7000200BE0C5
:104A50005A4958F8202041F82020239951F8202065
:104A6000584941F82020401CA842F1DB00201E9D3F
:104A7000BB4619ACCDF87C0044F820B0401C05289A
:104A8000FADB002009E003A951F82010962903DD84
:104A90004B49C9F800108EE0401CA842F3DB00230C
:104AA0006D1E5FE003A800EB830650F823E07668F4
:104AB0004FF07F41A6EB0E000A461290032850DD0E
:104AC0007046DFF800C10DE03C4F57F820708F4270
:104AD00001DD394615905CF82070974201DD3A46B9
:104AE0001490401C8642EFDC5CF826705CF82E00C7
:104AF0002090DDF85080381AA8EB0E077843129FFB
:104B000090FBF7F7209838445CF82870DDF854C023
:104B10003F1A2A480297ACEB0E0750F8266050F86F
:104B20002E80A6EB08067E43129F96FBF7F6149F95
:104B3000464450F82700029F801B4F435043F91111
:104B4000C01100280DDD1F9A052A0ADA49B1642236
:104B5000514391FBF0F11F9844F820101F98401C1E
:104B60001F905B1CAB429DDB20461F9900F0E4F9CF
:104B70001F9800EBD070401001280ADD04EB800183
:104B800054F8200051F8041C084400EBD070401089
:104B900001E054F82000C11EB52909D20A49085C79
:104BA000C9F8000001208AF8000025B0BDE8F08FA8
:104BB0000348C9F800008AF800B0F6E76009002051
:104BC00019FCFFFFB80B00207658000810B5C02173
:104BD000022000F00DF900283CD00021032000F055
:104BE00007F9002836D00021042000F001F9002840
:104BF00030D00021052000F0FBF800282AD0002149
:104C0000062000F0F5F8002824D06F21082000F0DD
:104C1000EFF800281ED00321092000F0E9F8002851
:104C200018D02F210A2000F0E3F8002812D0172115
:104C30000C2000F0DDF800280CD017210D2000F02A
:104C4000D7F8002806D07F21102000F0D1F80028E6
:104C500000D0012010BD0000F8B505460020086016
:104C60000C466946286000F085F86946012000F08E
:104C700081F83A48FEF7D7FDAE213848FEF797FD98
:104C80003648FEF7FCFD18B135A0FFF74FF812E0EB
:104C900007213248FEF78BFD3048FEF7F0FD50B992
:104CA0002E48FEF7C0FDAF212C48FEF780FD2B48B3
:104CB000FEF7E5FD20B12948FEF7CEFD0020F8BD46
:104CC0002648FEF739FD06462448FEF758FD2968B8
:104CD00001EB064028602148FEF72EFD06461F48DE
:104CE000FEF74DFD296801EB062028601B48FEF702
:104CF00023FD06461948FEF742FD28683044286027
:104D00001648FEF719FD06461448FEF738FD2168DF
:104D100001EB064020601148FEF70EFD06460F48E5
:104D2000FEF72DFD216801EB062020600B48FEF701
:104D300003FD06460948FEF722FD20683044206046
:104D40002868C0F3110028602068C0F311002060BB
:104D50000248FEF781FD0120F8BD00009C00002004
:104D600072656164206669666F206661696C65645E
:104D70000000000070B505460C461748FEF753FDCD
:104D8000AE211548FEF713FD1348FEF778FD90B9E4
:104D900029461148FEF70BFD0F48FEF770FD50B98C
:104DA0000D48FEF740FDAF210B48FEF700FD0A4815
:104DB000FEF765FD20B10848FEF74EFD002070BDEE
:104DC0000548FEF7B9FC20700348FEF716FD0248BF
:104DD000FEF742FD012070BD9C00002010B540216F
:104DE000092000F005F8002800D0012010BD0000C7
:104DF00070B504460D461248FEF715FDAE21104869
:104E0000FEF7D5FC0E48FEF73AFD78B921460C486E
:104E1000FEF7CDFC0A48FEF732FD38B929460848AE
:104E2000FEF7C5FC0648FEF72AFD20B10448FEF750
:104E300013FD002070BD0248FEF70EFD012070BD7D
:104E40009C0000202DE9F04700258946824601207C
:104E50000427089E29462C465B1EC9F8005002E034
:104E60002CB1641E401C9842FADBBDE8F08752F872
:104E700020C0B44507DD02EB800858F8048CC44517
:104E800001DD012501E0012DECD1B44504DAB94280
:104E900002DA00252946E5E7B94215D1B445E1DA41
:104EA00002EB800C5CF804CCB445DBDBD9F80010D5
:104EB0000F2905DA8D00491CC9F800104AF80500D1
:104EC00000210D460824CDE7491CCBE72DE9F0432E
:104ED0001E4613460C460A6805460146184600F071
:104EE00045F84FF0FF3840461CE00A46411CC6F129
:104EF0000009216013E000BF55F82170431C19D050
:104F000055F82030FB1AB34201DC4B4506DA236822
:104F10004FEA830C5B1C236045F80C70491C9142DE
:104F2000EADB401C21688142DFDC2846BDE8F04313
:104F300000F002B84346E5E730B5012312E000BFB8
:104F400050F823401A4602E040F82250521E002A30
:104F500005DD00EB820555F8045CA542F4DC40F861
:104F600022405B1C8B42EBDB30BD0000F0B501241E
:104F700016E000BF51F82450234602E041F82360B8
:104F80005B1E002B09DD01EB830650F8257056F8F7
:104F9000046C50F826C06745F0DC41F82350641CCF
:104FA0009442E7DBF0BD00001C4A08B51C49904262
:104FB00007D1886940F004008861886900F0040026
:104FC00009E0184A904208D1886940F008008861D9
:104FD000886900F00800009008BD134A904207D18C
:104FE000886940F010008861886900F01000F2E7DD
:104FF0000E4A904207D1886940F020008861886994
:1050000000F02000E7E70A4A9042E5D1886940F0C5
:1050100040008861886900F04000DCE7000801403A
:1050200000100240000C014000100140001401403B
:1050300000180140010202030405060708090A0BD3
:105040000C0D0E0F10100000000000000000010207
:105050000304060708090000000001020304000021
:10506000000000000000002F000000000700070003
:1050700000147F147F1400242A7F2A12006264081F
:10508000132300364955225000000503000000009C
:105090001C224100000041221C000014083E08149C
:1050A0000008083E0808000000A06000000808088A
:1050B0000808000060600000002010080402003EA4
:1050C0005149453E0000427F40000042615149463F
:1050D000002141454B31001814127F10002745452F
:1050E0004539003C4A494930000171090503003641
:1050F0004949493600064949291E00003636000054
:105100000000563600000008142241000014141458
:105110001414000041221408000201510906003253
:105120004959513E007C1211127C007F4949493691
:10513000003E41414122007F4141221C007F4949FC
:105140004941007F09090901003E4149497A007F30
:105150000808087F0000417F4100002040413F01D6
:10516000007F08142241007F40404040007F020C35
:10517000027F007F0408107F003E4141413E007FD6
:1051800009090906003E4151215E007F091929469F
:105190000046494949310001017F0101003F40407B
:1051A000403F001F2040201F003F4038403F006329
:1051B000140814630007087008070061514945434B
:1051C00000007F41410000552A552A550000414109
:1051D0007F00000402010204004040404040000003
:1051E00001020400002054545478007F484444389D
:1051F00000384444442000384444487F0038545424
:10520000541800087E0901020018A4A4A47C007FA1
:10521000080404780000447D4000004080847D0044
:10522000007F102844000000417F4000007C0418EB
:105230000478007C0804047800384444443800FCB6
:10524000242424180018242418FC007C08040408D2
:1052500000485454542000043F444020003C404047
:10526000207C001C2040201C003C4030403C00447E
:1052700028102844001CA0A0A07C004464544C4486
:1052800014141414141400000000000000000000A6
:10529000000000000000000000F800000000000016
:1052A00000333000000000100C06100C0600000057
:1052B00000000000000040C07840C0784000043F7B
:1052C00004043F040400007088FC0830000000184B
:1052D00020FF211E0000F008F000E018000000216F
:1052E0001C031E211E0000F00888700000001E2113
:1052F00023241927211010160E00000000000000C2
:10530000000000000000000000E01804020000009F
:1053100000071820400000020418E00000000040D0
:10532000201807000000404080F08040400002024A
:10533000010F01020200000000F000000000010166
:10534000011F01010100000000000000000080B00A
:1053500070000000000000000000000000000001DC
:105360000101010101010000000000000000003007
:1053700030000000000000000000806018040060A1
:1053800018060100000000E010080810E000000FFF
:10539000102020100F00001010F800000000002066
:1053A000203F2020000000700808088870000030AE
:1053B0002824222130000030088888483000001856
:1053C000202020110E000000C02010F8000000076F
:1053D0000424243F240000F80888880808000019E5
:1053E000212020110E0000E0108888180000000F16
:1053F000112020110E0000380808C83808000000ED
:10540000003F000000000070880808887000001C41
:10541000222121221C0000E010080810E0000000FA
:10542000312222110F00000000C0C0000000000067
:10543000003030000000000000800000000000008C
:105440008060000000000000804020100800000183
:105450000204081020004040404040404000040446
:105460000404040404000008102040800000002010
:10547000100804020100007048080808F00000004D
:10548000003036010000C030C828E810E0000718DE
:10549000272423140B000000C038E0000000203C4B
:1054A00023020227382008F8888888700000203FEF
:1054B000202020110E00C030080808083800071806
:1054C00020202010080008F808080810E000203FFD
:1054D000202020100F0008F88888E8081000203FDE
:1054E00020202320180008F88888E8081000203FB2
:1054F000200003000000C03008080838000007182A
:105500002020221E020008F808000008F808203FAA
:10551000210101213F20000808F8080800000020B0
:10552000203F2020000000000808F8080800C08084
:1055300080807F00000008F888C028180800203FFD
:1055400020012638200008F8080000000000203F55
:1055500020202020300008F8F800F8F80800203F4C
:10556000003F003F200008F830C00008F808203F46
:10557000200007183F00E01008080810E0000F1096
:10558000202020100F0008F808080808F000203F2D
:10559000210101010000E01008080810E0000F18C8
:1055A000242438504F0008F8888888887000203FED
:1055B0002000030C302000708808080838000038EC
:1055C000202121221C00180808F8080818000000F3
:1055D000203F2000000008F808000008F808001F1D
:1055E000202020201F000878880000C8380800000C
:1055F00007380E010000F80800F80008F800033C26
:105600000700073C030008186880806818082030ED
:105610002C03032C30200838C800C83808000000CC
:10562000203F2000000010080808C8380800203873
:10563000262120201800000000FE020202000000C7
:10564000007F40404000000C30C00000000000001F
:1056500000010638C00000020202FE000000004007
:1056600040407F000000000004020202040000002D
:10567000000000000000000000000000000080802A
:105680008080808080800002020400000000000012
:1056900000000000000000008080808000000019F1
:1056A000242222223F2008F8008080000000003FD2
:1056B000112020110E000000008080800000000EEC
:1056C000112020201100000000808088F800000ECA
:1056D000112020103F200000808080800000001FEB
:1056E000222222221300008080F08888881800205F
:1056F000203F202000000000808080808000006B20
:1057000094949493600008F8008080800000203F0B
:10571000210000203F200080989800000000002019
:10572000203F20200000000000809898000000C06A
:105730008080807F000008F8000080808000203F8B
:1057400024022D302000000808F80000000000208E
:10575000203F202000008080808080808000203FCB
:1057600020003F20003F8080008080800000203F9C
:10577000210000203F200000808080800000001F6A
:10578000202020201F00808000808000000080FFFB
:10579000A12020110E000000008080808000000EFB
:1057A000112020A0FF808080800080808000202049
:1057B0003F212000010000008080808080000033B5
:1057C000242424241900008080E080800000000050
:1057D000001F202000008080000000808000001F4B
:1057E000202020103F2080808000008080800001E9
:1057F0000E300806010080800080008080800F301D
:105800000C030C300F00008080008080800000209E
:10581000312E0E31200080808000008080808081C9
:105820008E7018060100008080808080800000213A
:10583000302C2221300000000000807C0202000099
:105840000000003F404000000000FF00000000009A
:105850000000FF0000000002027C80000000004009
:10586000403F0000000000060101020204040000A5
:105870000000000000005F5F5F6060606161616167
:1058800061626262626263636363636363636464ED
:1058900064646464646464646464646464646464C8
:1058A00064646363636363636363626262626262CC
:1058B00061616161606060605F5F5F5E5E5E5D5DF3
:1058C0005D5C5C5C5B5B5A5A59595958585757563E
:1058D0005655555454535252515150504F4E4E4DAF
:1058E0004C4C4B4A4A494848474645454443424246
:1058F00041403F3E3E3D3C3B3A39383837363534FF
:10590000333231302F2E2D2C2B2A292827262524DF
:105910002322211F1E1D1C1B1A19171615141311E3
:10592000100F0E0C0B0A0907060503020100000008
:1059300050590008000000207C0300007E09000888
:10594000745B00087C030020941200007C3D00087A
:105950003112080266012967821023127A450C0170
:105960004040190842805A081019083910191819AE
:105970009E490842041FFE82929292FE043382FEE8
:105980002480601F28091E1212121E40807F10C939
:105990000101138A0801298CC901218B0484011992
:1059A00070CA2001217DFC04040404312D7F2824C9
:1059B000231A2D21222222811F02424242C27E0549
:1059C0002542C202021A40012B7847061B407F0481
:1059D00059506C21222C50364020100C03560102E5
:1059E0000418604BFE820129DF413AFF3E444040EB
:1059F000FF180F04244484649C40300FC808082812
:105A000018C0180F080601824C201806010618203D
:105A10004080702B42CCA52A02A929A0100F40205B
:105A20001F20404F4442407F42444340180B806057
:105A3000F80704E4242424FF041AE4E11112FF28E7
:105A40000C80814529112F41418181807F19C94AEC
:105A50002205311D80601F02012E7F02024282DF7B
:105A60001009109453321E32521029E34A7EA04A84
:105A7000490139A0100908CC4A49484ACC181F7F6F
:105A800088888482E01E1D121252923A5A7E1011AA
:105A900019781C2424FC5F332322295D295B3908F3
:105AA00013020217048484FC84841009040484E42F
:105AB0001C840404180A2060201F1010040201A88E
:105AC000112B010692211CE00204FB1119EF112495
:105AD000100C032B3F4001127823010E180E14A462
